{
  "_format": "hh-sol-artifact-1",
  "contractName": "ProjectToken",
  "sourceName": "contracts/ProjectToken.sol",
  "abi": [
    {
      "inputs": [],
      "stateMutability": "nonpayable",
      "type": "constructor"
    },
    {
      "anonymous": false,
      "inputs": [
        {
          "indexed": false,
          "internalType": "string",
          "name": "idProjek",
          "type": "string"
        },
        {
          "indexed": false,
          "internalType": "string",
          "name": "idUser",
          "type": "string"
        },
        {
          "indexed": false,
          "internalType": "string",
          "name": "namaProyek",
          "type": "string"
        },
        {
          "indexed": false,
          "internalType": "string",
          "name": "namaPetugas",
          "type": "string"
        },
        {
          "indexed": false,
          "internalType": "string",
          "name": "alamatPetugas",
          "type": "string"
        },
        {
          "indexed": false,
          "internalType": "string",
          "name": "namaPemilikProyek",
          "type": "string"
        },
        {
          "indexed": false,
          "internalType": "string",
          "name": "nik",
          "type": "string"
        },
        {
          "indexed": false,
          "internalType": "string",
          "name": "noHp",
          "type": "string"
        },
        {
          "indexed": false,
          "internalType": "string",
          "name": "alamat",
          "type": "string"
        },
        {
          "indexed": false,
          "internalType": "string",
          "name": "signature",
          "type": "string"
        },
        {
          "indexed": false,
          "internalType": "string",
          "name": "tandaTangan",
          "type": "string"
        },
        {
          "indexed": false,
          "internalType": "int256",
          "name": "nominalDisetujui",
          "type": "int256"
        },
        {
          "indexed": false,
          "internalType": "uint256",
          "name": "createdAt",
          "type": "uint256"
        }
      ],
      "name": "AgreementCreated",
      "type": "event"
    },
    {
      "anonymous": false,
      "inputs": [
        {
          "indexed": true,
          "internalType": "address",
          "name": "owner",
          "type": "address"
        },
        {
          "indexed": true,
          "internalType": "address",
          "name": "spender",
          "type": "address"
        },
        {
          "indexed": false,
          "internalType": "uint256",
          "name": "value",
          "type": "uint256"
        }
      ],
      "name": "Approval",
      "type": "event"
    },
    {
      "anonymous": false,
      "inputs": [
        {
          "indexed": true,
          "internalType": "string",
          "name": "chartTokenId",
          "type": "string"
        },
        {
          "indexed": false,
          "internalType": "string",
          "name": "idUser",
          "type": "string"
        },
        {
          "indexed": false,
          "internalType": "string",
          "name": "idProjek",
          "type": "string"
        },
        {
          "indexed": false,
          "internalType": "int256",
          "name": "nominal",
          "type": "int256"
        },
        {
          "indexed": false,
          "internalType": "uint256",
          "name": "createdAt",
          "type": "uint256"
        }
      ],
      "name": "ChartTokenCreated",
      "type": "event"
    },
    {
      "anonymous": false,
      "inputs": [
        {
          "indexed": false,
          "internalType": "string",
          "name": "idProjek",
          "type": "string"
        },
        {
          "indexed": false,
          "internalType": "int256",
          "name": "pelaksana",
          "type": "int256"
        },
        {
          "indexed": false,
          "internalType": "int256",
          "name": "pemilik",
          "type": "int256"
        },
        {
          "indexed": false,
          "internalType": "int256",
          "name": "koperasi",
          "type": "int256"
        },
        {
          "indexed": false,
          "internalType": "int256",
          "name": "pendana",
          "type": "int256"
        }
      ],
      "name": "DividenProfitAdded",
      "type": "event"
    },
    {
      "anonymous": false,
      "inputs": [
        {
          "indexed": false,
          "internalType": "string",
          "name": "idProjek",
          "type": "string"
        },
        {
          "indexed": false,
          "internalType": "int256",
          "name": "pelaksana",
          "type": "int256"
        },
        {
          "indexed": false,
          "internalType": "int256",
          "name": "pemilik",
          "type": "int256"
        },
        {
          "indexed": false,
          "internalType": "int256",
          "name": "koperasi",
          "type": "int256"
        },
        {
          "indexed": false,
          "internalType": "int256",
          "name": "pendana",
          "type": "int256"
        }
      ],
      "name": "DividenProfitUpdated",
      "type": "event"
    },
    {
      "anonymous": false,
      "inputs": [
        {
          "indexed": true,
          "internalType": "string",
          "name": "historyTokenId",
          "type": "string"
        },
        {
          "indexed": false,
          "internalType": "string",
          "name": "chartTokenId",
          "type": "string"
        },
        {
          "indexed": false,
          "internalType": "int256",
          "name": "totalNilai",
          "type": "int256"
        },
        {
          "indexed": false,
          "internalType": "uint256",
          "name": "createdAt",
          "type": "uint256"
        }
      ],
      "name": "HistoryTokenCreated",
      "type": "event"
    },
    {
      "anonymous": false,
      "inputs": [
        {
          "indexed": true,
          "internalType": "string",
          "name": "tokenId",
          "type": "string"
        },
        {
          "indexed": false,
          "internalType": "string",
          "name": "idProjek",
          "type": "string"
        },
        {
          "indexed": false,
          "internalType": "string",
          "name": "idUser",
          "type": "string"
        },
        {
          "indexed": false,
          "internalType": "int256",
          "name": "nilai",
          "type": "int256"
        }
      ],
      "name": "TokenCreated",
      "type": "event"
    },
    {
      "anonymous": false,
      "inputs": [
        {
          "indexed": true,
          "internalType": "string",
          "name": "tokenId",
          "type": "string"
        }
      ],
      "name": "TokenNominalReset",
      "type": "event"
    },
    {
      "anonymous": false,
      "inputs": [
        {
          "indexed": true,
          "internalType": "string",
          "name": "tokenId",
          "type": "string"
        },
        {
          "indexed": false,
          "internalType": "string",
          "name": "newIdUser",
          "type": "string"
        }
      ],
      "name": "TokenUserUpdated",
      "type": "event"
    },
    {
      "anonymous": false,
      "inputs": [
        {
          "indexed": true,
          "internalType": "address",
          "name": "from",
          "type": "address"
        },
        {
          "indexed": true,
          "internalType": "address",
          "name": "to",
          "type": "address"
        },
        {
          "indexed": false,
          "internalType": "uint256",
          "name": "value",
          "type": "uint256"
        }
      ],
      "name": "Transfer",
      "type": "event"
    },
    {
      "inputs": [
        {
          "internalType": "string",
          "name": "idUser",
          "type": "string"
        },
        {
          "internalType": "string",
          "name": "idProjek",
          "type": "string"
        },
        {
          "internalType": "int256",
          "name": "nominal",
          "type": "int256"
        },
        {
          "internalType": "int256",
          "name": "totalNilai",
          "type": "int256"
        }
      ],
      "name": "addChartToken",
      "outputs": [
        {
          "internalType": "string",
          "name": "chartTokenId",
          "type": "string"
        }
      ],
      "stateMutability": "nonpayable",
      "type": "function"
    },
    {
      "inputs": [
        {
          "internalType": "string",
          "name": "idProjek",
          "type": "string"
        },
        {
          "internalType": "int256",
          "name": "pelaksana",
          "type": "int256"
        },
        {
          "internalType": "int256",
          "name": "pemilik",
          "type": "int256"
        },
        {
          "internalType": "int256",
          "name": "koperasi",
          "type": "int256"
        },
        {
          "internalType": "int256",
          "name": "pendana",
          "type": "int256"
        }
      ],
      "name": "addDividenProfit",
      "outputs": [],
      "stateMutability": "nonpayable",
      "type": "function"
    },
    {
      "inputs": [
        {
          "internalType": "string",
          "name": "idUser",
          "type": "string"
        },
        {
          "internalType": "string",
          "name": "namaUser",
          "type": "string"
        },
        {
          "internalType": "string",
          "name": "idProjek",
          "type": "string"
        },
        {
          "internalType": "string",
          "name": "judulProjek",
          "type": "string"
        },
        {
          "internalType": "string",
          "name": "ownerProjek",
          "type": "string"
        },
        {
          "internalType": "int256",
          "name": "jumlahToken",
          "type": "int256"
        },
        {
          "internalType": "int256",
          "name": "totalNominal",
          "type": "int256"
        }
      ],
      "name": "addTransaction",
      "outputs": [],
      "stateMutability": "nonpayable",
      "type": "function"
    },
    {
      "inputs": [],
      "name": "agreementCount",
      "outputs": [
        {
          "internalType": "uint256",
          "name": "",
          "type": "uint256"
        }
      ],
      "stateMutability": "view",
      "type": "function"
    },
    {
      "inputs": [
        {
          "internalType": "uint256",
          "name": "",
          "type": "uint256"
        }
      ],
      "name": "agreements",
      "outputs": [
        {
          "internalType": "string",
          "name": "idProjek",
          "type": "string"
        },
        {
          "internalType": "string",
          "name": "idUser",
          "type": "string"
        },
        {
          "internalType": "string",
          "name": "namaProyek",
          "type": "string"
        },
        {
          "internalType": "string",
          "name": "namaPetugas",
          "type": "string"
        },
        {
          "internalType": "string",
          "name": "alamatPetugas",
          "type": "string"
        },
        {
          "internalType": "string",
          "name": "namaPemilikProyek",
          "type": "string"
        },
        {
          "internalType": "string",
          "name": "nik",
          "type": "string"
        },
        {
          "internalType": "string",
          "name": "noHp",
          "type": "string"
        },
        {
          "internalType": "string",
          "name": "alamat",
          "type": "string"
        },
        {
          "internalType": "string",
          "name": "signature",
          "type": "string"
        },
        {
          "internalType": "string",
          "name": "tandaTangan",
          "type": "string"
        },
        {
          "internalType": "int256",
          "name": "nominalDisetujui",
          "type": "int256"
        },
        {
          "internalType": "uint256",
          "name": "createdAt",
          "type": "uint256"
        }
      ],
      "stateMutability": "view",
      "type": "function"
    },
    {
      "inputs": [
        {
          "internalType": "uint256",
          "name": "",
          "type": "uint256"
        }
      ],
      "name": "allChartTokenIds",
      "outputs": [
        {
          "internalType": "string",
          "name": "",
          "type": "string"
        }
      ],
      "stateMutability": "view",
      "type": "function"
    },
    {
      "inputs": [
        {
          "internalType": "uint256",
          "name": "",
          "type": "uint256"
        }
      ],
      "name": "allHistoryTokenIds",
      "outputs": [
        {
          "internalType": "string",
          "name": "",
          "type": "string"
        }
      ],
      "stateMutability": "view",
      "type": "function"
    },
    {
      "inputs": [
        {
          "internalType": "uint256",
          "name": "",
          "type": "uint256"
        }
      ],
      "name": "allTokenIds",
      "outputs": [
        {
          "internalType": "string",
          "name": "",
          "type": "string"
        }
      ],
      "stateMutability": "view",
      "type": "function"
    },
    {
      "inputs": [
        {
          "internalType": "address",
          "name": "owner",
          "type": "address"
        },
        {
          "internalType": "address",
          "name": "spender",
          "type": "address"
        }
      ],
      "name": "allowance",
      "outputs": [
        {
          "internalType": "uint256",
          "name": "",
          "type": "uint256"
        }
      ],
      "stateMutability": "view",
      "type": "function"
    },
    {
      "inputs": [
        {
          "internalType": "address",
          "name": "spender",
          "type": "address"
        },
        {
          "internalType": "uint256",
          "name": "amount",
          "type": "uint256"
        }
      ],
      "name": "approve",
      "outputs": [
        {
          "internalType": "bool",
          "name": "",
          "type": "bool"
        }
      ],
      "stateMutability": "nonpayable",
      "type": "function"
    },
    {
      "inputs": [
        {
          "internalType": "address",
          "name": "account",
          "type": "address"
        }
      ],
      "name": "balanceOf",
      "outputs": [
        {
          "internalType": "uint256",
          "name": "",
          "type": "uint256"
        }
      ],
      "stateMutability": "view",
      "type": "function"
    },
    {
      "inputs": [
        {
          "internalType": "string",
          "name": "",
          "type": "string"
        }
      ],
      "name": "chartTokens",
      "outputs": [
        {
          "internalType": "string",
          "name": "chartTokenId",
          "type": "string"
        },
        {
          "internalType": "string",
          "name": "idUser",
          "type": "string"
        },
        {
          "internalType": "string",
          "name": "idProjek",
          "type": "string"
        },
        {
          "internalType": "int256",
          "name": "nominal",
          "type": "int256"
        },
        {
          "internalType": "uint256",
          "name": "createdAt",
          "type": "uint256"
        }
      ],
      "stateMutability": "view",
      "type": "function"
    },
    {
      "inputs": [
        {
          "internalType": "string",
          "name": "_idProjek",
          "type": "string"
        },
        {
          "internalType": "string",
          "name": "_idUser",
          "type": "string"
        },
        {
          "internalType": "string",
          "name": "_namaProyek",
          "type": "string"
        },
        {
          "internalType": "string",
          "name": "_namaPetugas",
          "type": "string"
        },
        {
          "internalType": "string",
          "name": "_alamatPetugas",
          "type": "string"
        },
        {
          "internalType": "string",
          "name": "_namaPemilikProyek",
          "type": "string"
        },
        {
          "internalType": "string",
          "name": "_nik",
          "type": "string"
        },
        {
          "internalType": "string",
          "name": "_noHp",
          "type": "string"
        },
        {
          "internalType": "string",
          "name": "_alamat",
          "type": "string"
        },
        {
          "internalType": "string",
          "name": "_signature",
          "type": "string"
        },
        {
          "internalType": "string",
          "name": "_tandaTangan",
          "type": "string"
        },
        {
          "internalType": "int256",
          "name": "_nominalDisetujui",
          "type": "int256"
        }
      ],
      "name": "createAgreementLetter",
      "outputs": [],
      "stateMutability": "nonpayable",
      "type": "function"
    },
    {
      "inputs": [
        {
          "internalType": "string",
          "name": "idProjek",
          "type": "string"
        },
        {
          "internalType": "string",
          "name": "idUser",
          "type": "string"
        },
        {
          "internalType": "int256",
          "name": "nilai",
          "type": "int256"
        }
      ],
      "name": "createToken",
      "outputs": [],
      "stateMutability": "nonpayable",
      "type": "function"
    },
    {
      "inputs": [],
      "name": "decimals",
      "outputs": [
        {
          "internalType": "uint8",
          "name": "",
          "type": "uint8"
        }
      ],
      "stateMutability": "view",
      "type": "function"
    },
    {
      "inputs": [
        {
          "internalType": "address",
          "name": "spender",
          "type": "address"
        },
        {
          "internalType": "uint256",
          "name": "subtractedValue",
          "type": "uint256"
        }
      ],
      "name": "decreaseAllowance",
      "outputs": [
        {
          "internalType": "bool",
          "name": "",
          "type": "bool"
        }
      ],
      "stateMutability": "nonpayable",
      "type": "function"
    },
    {
      "inputs": [
        {
          "internalType": "string",
          "name": "",
          "type": "string"
        }
      ],
      "name": "dividenProfit",
      "outputs": [
        {
          "internalType": "string",
          "name": "idProjek",
          "type": "string"
        },
        {
          "internalType": "int256",
          "name": "pelaksana",
          "type": "int256"
        },
        {
          "internalType": "int256",
          "name": "pemilik",
          "type": "int256"
        },
        {
          "internalType": "int256",
          "name": "koperasi",
          "type": "int256"
        },
        {
          "internalType": "int256",
          "name": "pendana",
          "type": "int256"
        }
      ],
      "stateMutability": "view",
      "type": "function"
    },
    {
      "inputs": [
        {
          "internalType": "string",
          "name": "idProjek",
          "type": "string"
        }
      ],
      "name": "getAgreementByProjectId",
      "outputs": [
        {
          "components": [
            {
              "internalType": "string",
              "name": "idProjek",
              "type": "string"
            },
            {
              "internalType": "string",
              "name": "idUser",
              "type": "string"
            },
            {
              "internalType": "string",
              "name": "namaProyek",
              "type": "string"
            },
            {
              "internalType": "string",
              "name": "namaPetugas",
              "type": "string"
            },
            {
              "internalType": "string",
              "name": "alamatPetugas",
              "type": "string"
            },
            {
              "internalType": "string",
              "name": "namaPemilikProyek",
              "type": "string"
            },
            {
              "internalType": "string",
              "name": "nik",
              "type": "string"
            },
            {
              "internalType": "string",
              "name": "noHp",
              "type": "string"
            },
            {
              "internalType": "string",
              "name": "alamat",
              "type": "string"
            },
            {
              "internalType": "string",
              "name": "signature",
              "type": "string"
            },
            {
              "internalType": "string",
              "name": "tandaTangan",
              "type": "string"
            },
            {
              "internalType": "int256",
              "name": "nominalDisetujui",
              "type": "int256"
            },
            {
              "internalType": "uint256",
              "name": "createdAt",
              "type": "uint256"
            }
          ],
          "internalType": "struct ProjectToken.Agreement[]",
          "name": "",
          "type": "tuple[]"
        }
      ],
      "stateMutability": "view",
      "type": "function"
    },
    {
      "inputs": [],
      "name": "getAllAgreement",
      "outputs": [
        {
          "components": [
            {
              "internalType": "string",
              "name": "idProjek",
              "type": "string"
            },
            {
              "internalType": "string",
              "name": "idUser",
              "type": "string"
            },
            {
              "internalType": "string",
              "name": "namaProyek",
              "type": "string"
            },
            {
              "internalType": "string",
              "name": "namaPetugas",
              "type": "string"
            },
            {
              "internalType": "string",
              "name": "alamatPetugas",
              "type": "string"
            },
            {
              "internalType": "string",
              "name": "namaPemilikProyek",
              "type": "string"
            },
            {
              "internalType": "string",
              "name": "nik",
              "type": "string"
            },
            {
              "internalType": "string",
              "name": "noHp",
              "type": "string"
            },
            {
              "internalType": "string",
              "name": "alamat",
              "type": "string"
            },
            {
              "internalType": "string",
              "name": "signature",
              "type": "string"
            },
            {
              "internalType": "string",
              "name": "tandaTangan",
              "type": "string"
            },
            {
              "internalType": "int256",
              "name": "nominalDisetujui",
              "type": "int256"
            },
            {
              "internalType": "uint256",
              "name": "createdAt",
              "type": "uint256"
            }
          ],
          "internalType": "struct ProjectToken.Agreement[]",
          "name": "",
          "type": "tuple[]"
        }
      ],
      "stateMutability": "view",
      "type": "function"
    },
    {
      "inputs": [
        {
          "internalType": "string",
          "name": "idUser",
          "type": "string"
        }
      ],
      "name": "getAllChartTokensByUserId",
      "outputs": [
        {
          "components": [
            {
              "internalType": "string",
              "name": "chartTokenId",
              "type": "string"
            },
            {
              "internalType": "string",
              "name": "idUser",
              "type": "string"
            },
            {
              "internalType": "string",
              "name": "idProjek",
              "type": "string"
            },
            {
              "internalType": "int256",
              "name": "nominal",
              "type": "int256"
            },
            {
              "internalType": "uint256",
              "name": "createdAt",
              "type": "uint256"
            }
          ],
          "internalType": "struct ProjectToken.ChartToken[]",
          "name": "",
          "type": "tuple[]"
        }
      ],
      "stateMutability": "view",
      "type": "function"
    },
    {
      "inputs": [],
      "name": "getAllTokens",
      "outputs": [
        {
          "components": [
            {
              "internalType": "string",
              "name": "tokenId",
              "type": "string"
            },
            {
              "internalType": "string",
              "name": "idProjek",
              "type": "string"
            },
            {
              "internalType": "string",
              "name": "idUser",
              "type": "string"
            },
            {
              "internalType": "int256",
              "name": "nilai",
              "type": "int256"
            }
          ],
          "internalType": "struct ProjectToken.TokenDetail[]",
          "name": "",
          "type": "tuple[]"
        }
      ],
      "stateMutability": "view",
      "type": "function"
    },
    {
      "inputs": [],
      "name": "getAllTransaction",
      "outputs": [
        {
          "components": [
            {
              "internalType": "string",
              "name": "idUser",
              "type": "string"
            },
            {
              "internalType": "string",
              "name": "namaUser",
              "type": "string"
            },
            {
              "internalType": "string",
              "name": "idProjek",
              "type": "string"
            },
            {
              "internalType": "string",
              "name": "judulProjek",
              "type": "string"
            },
            {
              "internalType": "string",
              "name": "ownerProjek",
              "type": "string"
            },
            {
              "internalType": "int256",
              "name": "jumlahToken",
              "type": "int256"
            },
            {
              "internalType": "int256",
              "name": "totalNominal",
              "type": "int256"
            }
          ],
          "internalType": "struct ProjectToken.Transaksi[]",
          "name": "",
          "type": "tuple[]"
        }
      ],
      "stateMutability": "view",
      "type": "function"
    },
    {
      "inputs": [
        {
          "internalType": "string",
          "name": "idUser",
          "type": "string"
        },
        {
          "internalType": "string",
          "name": "idProjek",
          "type": "string"
        }
      ],
      "name": "getChartTokensByUserIdAndProjectId",
      "outputs": [
        {
          "components": [
            {
              "internalType": "string",
              "name": "chartTokenId",
              "type": "string"
            },
            {
              "internalType": "string",
              "name": "idUser",
              "type": "string"
            },
            {
              "internalType": "string",
              "name": "idProjek",
              "type": "string"
            },
            {
              "internalType": "int256",
              "name": "nominal",
              "type": "int256"
            },
            {
              "internalType": "uint256",
              "name": "createdAt",
              "type": "uint256"
            }
          ],
          "internalType": "struct ProjectToken.ChartToken[]",
          "name": "",
          "type": "tuple[]"
        }
      ],
      "stateMutability": "view",
      "type": "function"
    },
    {
      "inputs": [
        {
          "internalType": "string",
          "name": "idProjek",
          "type": "string"
        }
      ],
      "name": "getDividenProfitByProjectId",
      "outputs": [
        {
          "components": [
            {
              "internalType": "string",
              "name": "idProjek",
              "type": "string"
            },
            {
              "internalType": "int256",
              "name": "pelaksana",
              "type": "int256"
            },
            {
              "internalType": "int256",
              "name": "pemilik",
              "type": "int256"
            },
            {
              "internalType": "int256",
              "name": "koperasi",
              "type": "int256"
            },
            {
              "internalType": "int256",
              "name": "pendana",
              "type": "int256"
            }
          ],
          "internalType": "struct ProjectToken.DividenProfit",
          "name": "",
          "type": "tuple"
        }
      ],
      "stateMutability": "view",
      "type": "function"
    },
    {
      "inputs": [
        {
          "internalType": "string",
          "name": "chartTokenId",
          "type": "string"
        }
      ],
      "name": "getHistoryTokenByChartTokenId",
      "outputs": [
        {
          "components": [
            {
              "internalType": "string",
              "name": "historyTokenId",
              "type": "string"
            },
            {
              "internalType": "string",
              "name": "chartTokenId",
              "type": "string"
            },
            {
              "internalType": "int256",
              "name": "totalNilai",
              "type": "int256"
            },
            {
              "internalType": "uint256",
              "name": "createdAt",
              "type": "uint256"
            }
          ],
          "internalType": "struct ProjectToken.HistoryToken",
          "name": "",
          "type": "tuple"
        }
      ],
      "stateMutability": "view",
      "type": "function"
    },
    {
      "inputs": [
        {
          "internalType": "string",
          "name": "idUser",
          "type": "string"
        },
        {
          "internalType": "string",
          "name": "idProjek",
          "type": "string"
        }
      ],
      "name": "getHistoryTokensByUserIdAndProjectId",
      "outputs": [
        {
          "components": [
            {
              "internalType": "string",
              "name": "historyTokenId",
              "type": "string"
            },
            {
              "internalType": "string",
              "name": "chartTokenId",
              "type": "string"
            },
            {
              "internalType": "int256",
              "name": "totalNilai",
              "type": "int256"
            },
            {
              "internalType": "uint256",
              "name": "createdAt",
              "type": "uint256"
            }
          ],
          "internalType": "struct ProjectToken.HistoryToken[]",
          "name": "",
          "type": "tuple[]"
        }
      ],
      "stateMutability": "view",
      "type": "function"
    },
    {
      "inputs": [
        {
          "internalType": "string",
          "name": "idUser",
          "type": "string"
        },
        {
          "internalType": "string",
          "name": "idProjek",
          "type": "string"
        }
      ],
      "name": "getLatestChartTokenByUserIdAndProjectId",
      "outputs": [
        {
          "components": [
            {
              "internalType": "string",
              "name": "chartTokenId",
              "type": "string"
            },
            {
              "internalType": "string",
              "name": "idUser",
              "type": "string"
            },
            {
              "internalType": "string",
              "name": "idProjek",
              "type": "string"
            },
            {
              "internalType": "int256",
              "name": "nominal",
              "type": "int256"
            },
            {
              "internalType": "uint256",
              "name": "createdAt",
              "type": "uint256"
            }
          ],
          "internalType": "struct ProjectToken.ChartToken",
          "name": "",
          "type": "tuple"
        }
      ],
      "stateMutability": "view",
      "type": "function"
    },
    {
      "inputs": [
        {
          "internalType": "string",
          "name": "idProjek",
          "type": "string"
        }
      ],
      "name": "getLatestChartTokensByProjectId",
      "outputs": [
        {
          "components": [
            {
              "internalType": "string",
              "name": "chartTokenId",
              "type": "string"
            },
            {
              "internalType": "string",
              "name": "idUser",
              "type": "string"
            },
            {
              "internalType": "string",
              "name": "idProjek",
              "type": "string"
            },
            {
              "internalType": "int256",
              "name": "nominal",
              "type": "int256"
            },
            {
              "internalType": "uint256",
              "name": "createdAt",
              "type": "uint256"
            }
          ],
          "internalType": "struct ProjectToken.ChartToken[]",
          "name": "",
          "type": "tuple[]"
        }
      ],
      "stateMutability": "view",
      "type": "function"
    },
    {
      "inputs": [
        {
          "internalType": "string",
          "name": "tokenId",
          "type": "string"
        }
      ],
      "name": "getTokenById",
      "outputs": [
        {
          "components": [
            {
              "internalType": "string",
              "name": "tokenId",
              "type": "string"
            },
            {
              "internalType": "string",
              "name": "idProjek",
              "type": "string"
            },
            {
              "internalType": "string",
              "name": "idUser",
              "type": "string"
            },
            {
              "internalType": "int256",
              "name": "nilai",
              "type": "int256"
            }
          ],
          "internalType": "struct ProjectToken.TokenDetail",
          "name": "",
          "type": "tuple"
        }
      ],
      "stateMutability": "view",
      "type": "function"
    },
    {
      "inputs": [
        {
          "internalType": "string",
          "name": "idProjek",
          "type": "string"
        }
      ],
      "name": "getTokenByProjectId",
      "outputs": [
        {
          "components": [
            {
              "internalType": "string",
              "name": "tokenId",
              "type": "string"
            },
            {
              "internalType": "string",
              "name": "idProjek",
              "type": "string"
            },
            {
              "internalType": "string",
              "name": "idUser",
              "type": "string"
            },
            {
              "internalType": "int256",
              "name": "nilai",
              "type": "int256"
            }
          ],
          "internalType": "struct ProjectToken.TokenDetail[]",
          "name": "",
          "type": "tuple[]"
        }
      ],
      "stateMutability": "view",
      "type": "function"
    },
    {
      "inputs": [
        {
          "internalType": "string",
          "name": "idUser",
          "type": "string"
        },
        {
          "internalType": "string",
          "name": "idProjek",
          "type": "string"
        }
      ],
      "name": "getTokenByUserAndProject",
      "outputs": [
        {
          "components": [
            {
              "internalType": "string",
              "name": "tokenId",
              "type": "string"
            },
            {
              "internalType": "string",
              "name": "idProjek",
              "type": "string"
            },
            {
              "internalType": "string",
              "name": "idUser",
              "type": "string"
            },
            {
              "internalType": "int256",
              "name": "nilai",
              "type": "int256"
            }
          ],
          "internalType": "struct ProjectToken.TokenDetail[]",
          "name": "",
          "type": "tuple[]"
        }
      ],
      "stateMutability": "view",
      "type": "function"
    },
    {
      "inputs": [
        {
          "internalType": "string",
          "name": "idUser",
          "type": "string"
        },
        {
          "internalType": "string",
          "name": "idProjek",
          "type": "string"
        }
      ],
      "name": "getTotalNominalToken",
      "outputs": [
        {
          "internalType": "int256",
          "name": "",
          "type": "int256"
        }
      ],
      "stateMutability": "view",
      "type": "function"
    },
    {
      "inputs": [],
      "name": "getTotalTokens",
      "outputs": [
        {
          "internalType": "uint256",
          "name": "",
          "type": "uint256"
        }
      ],
      "stateMutability": "view",
      "type": "function"
    },
    {
      "inputs": [
        {
          "internalType": "string",
          "name": "idProjek",
          "type": "string"
        }
      ],
      "name": "getTransactionByProjectId",
      "outputs": [
        {
          "components": [
            {
              "internalType": "string",
              "name": "idUser",
              "type": "string"
            },
            {
              "internalType": "string",
              "name": "namaUser",
              "type": "string"
            },
            {
              "internalType": "string",
              "name": "idProjek",
              "type": "string"
            },
            {
              "internalType": "string",
              "name": "judulProjek",
              "type": "string"
            },
            {
              "internalType": "string",
              "name": "ownerProjek",
              "type": "string"
            },
            {
              "internalType": "int256",
              "name": "jumlahToken",
              "type": "int256"
            },
            {
              "internalType": "int256",
              "name": "totalNominal",
              "type": "int256"
            }
          ],
          "internalType": "struct ProjectToken.Transaksi[]",
          "name": "",
          "type": "tuple[]"
        }
      ],
      "stateMutability": "view",
      "type": "function"
    },
    {
      "inputs": [
        {
          "internalType": "string",
          "name": "idUser",
          "type": "string"
        }
      ],
      "name": "getTransactionByUserId",
      "outputs": [
        {
          "components": [
            {
              "internalType": "string",
              "name": "idUser",
              "type": "string"
            },
            {
              "internalType": "string",
              "name": "namaUser",
              "type": "string"
            },
            {
              "internalType": "string",
              "name": "idProjek",
              "type": "string"
            },
            {
              "internalType": "string",
              "name": "judulProjek",
              "type": "string"
            },
            {
              "internalType": "string",
              "name": "ownerProjek",
              "type": "string"
            },
            {
              "internalType": "int256",
              "name": "jumlahToken",
              "type": "int256"
            },
            {
              "internalType": "int256",
              "name": "totalNominal",
              "type": "int256"
            }
          ],
          "internalType": "struct ProjectToken.Transaksi[]",
          "name": "",
          "type": "tuple[]"
        }
      ],
      "stateMutability": "view",
      "type": "function"
    },
    {
      "inputs": [
        {
          "internalType": "string",
          "name": "",
          "type": "string"
        }
      ],
      "name": "historyTokens",
      "outputs": [
        {
          "internalType": "string",
          "name": "historyTokenId",
          "type": "string"
        },
        {
          "internalType": "string",
          "name": "chartTokenId",
          "type": "string"
        },
        {
          "internalType": "int256",
          "name": "totalNilai",
          "type": "int256"
        },
        {
          "internalType": "uint256",
          "name": "createdAt",
          "type": "uint256"
        }
      ],
      "stateMutability": "view",
      "type": "function"
    },
    {
      "inputs": [
        {
          "internalType": "address",
          "name": "spender",
          "type": "address"
        },
        {
          "internalType": "uint256",
          "name": "addedValue",
          "type": "uint256"
        }
      ],
      "name": "increaseAllowance",
      "outputs": [
        {
          "internalType": "bool",
          "name": "",
          "type": "bool"
        }
      ],
      "stateMutability": "nonpayable",
      "type": "function"
    },
    {
      "inputs": [],
      "name": "name",
      "outputs": [
        {
          "internalType": "string",
          "name": "",
          "type": "string"
        }
      ],
      "stateMutability": "view",
      "type": "function"
    },
    {
      "inputs": [
        {
          "internalType": "string",
          "name": "tokenId",
          "type": "string"
        }
      ],
      "name": "resetTokenNominal",
      "outputs": [],
      "stateMutability": "nonpayable",
      "type": "function"
    },
    {
      "inputs": [],
      "name": "symbol",
      "outputs": [
        {
          "internalType": "string",
          "name": "",
          "type": "string"
        }
      ],
      "stateMutability": "view",
      "type": "function"
    },
    {
      "inputs": [
        {
          "internalType": "string",
          "name": "",
          "type": "string"
        }
      ],
      "name": "tokenDetails",
      "outputs": [
        {
          "internalType": "string",
          "name": "tokenId",
          "type": "string"
        },
        {
          "internalType": "string",
          "name": "idProjek",
          "type": "string"
        },
        {
          "internalType": "string",
          "name": "idUser",
          "type": "string"
        },
        {
          "internalType": "int256",
          "name": "nilai",
          "type": "int256"
        }
      ],
      "stateMutability": "view",
      "type": "function"
    },
    {
      "inputs": [],
      "name": "totalSupply",
      "outputs": [
        {
          "internalType": "uint256",
          "name": "",
          "type": "uint256"
        }
      ],
      "stateMutability": "view",
      "type": "function"
    },
    {
      "inputs": [
        {
          "internalType": "uint256",
          "name": "",
          "type": "uint256"
        }
      ],
      "name": "transaksiList",
      "outputs": [
        {
          "internalType": "string",
          "name": "idUser",
          "type": "string"
        },
        {
          "internalType": "string",
          "name": "namaUser",
          "type": "string"
        },
        {
          "internalType": "string",
          "name": "idProjek",
          "type": "string"
        },
        {
          "internalType": "string",
          "name": "judulProjek",
          "type": "string"
        },
        {
          "internalType": "string",
          "name": "ownerProjek",
          "type": "string"
        },
        {
          "internalType": "int256",
          "name": "jumlahToken",
          "type": "int256"
        },
        {
          "internalType": "int256",
          "name": "totalNominal",
          "type": "int256"
        }
      ],
      "stateMutability": "view",
      "type": "function"
    },
    {
      "inputs": [
        {
          "internalType": "address",
          "name": "to",
          "type": "address"
        },
        {
          "internalType": "uint256",
          "name": "amount",
          "type": "uint256"
        }
      ],
      "name": "transfer",
      "outputs": [
        {
          "internalType": "bool",
          "name": "",
          "type": "bool"
        }
      ],
      "stateMutability": "nonpayable",
      "type": "function"
    },
    {
      "inputs": [
        {
          "internalType": "address",
          "name": "from",
          "type": "address"
        },
        {
          "internalType": "address",
          "name": "to",
          "type": "address"
        },
        {
          "internalType": "uint256",
          "name": "amount",
          "type": "uint256"
        }
      ],
      "name": "transferFrom",
      "outputs": [
        {
          "internalType": "bool",
          "name": "",
          "type": "bool"
        }
      ],
      "stateMutability": "nonpayable",
      "type": "function"
    },
    {
      "inputs": [
        {
          "internalType": "string",
          "name": "idProjek",
          "type": "string"
        },
        {
          "internalType": "int256",
          "name": "newPelaksana",
          "type": "int256"
        },
        {
          "internalType": "int256",
          "name": "newPemilik",
          "type": "int256"
        },
        {
          "internalType": "int256",
          "name": "newKoperasi",
          "type": "int256"
        },
        {
          "internalType": "int256",
          "name": "newPendana",
          "type": "int256"
        }
      ],
      "name": "updateDividenProfit",
      "outputs": [],
      "stateMutability": "nonpayable",
      "type": "function"
    },
    {
      "inputs": [
        {
          "internalType": "string",
          "name": "tokenId",
          "type": "string"
        },
        {
          "internalType": "string",
          "name": "newIdUser",
          "type": "string"
        }
      ],
      "name": "updateTokenUser",
      "outputs": [],
      "stateMutability": "nonpayable",
      "type": "function"
    }
  ],
  "bytecode": "0x60806040523461032a57604080519081016001600160401b03811182821017610235576040908152600c82526b283937b532b1ba2a37b5b2b760a11b602083015280519081016001600160401b03811182821017610235576040526004815263282a25a760e11b602082015281516001600160401b03811161023557600354600181811c91168015610320575b602082101461021557601f81116102bb575b50602092601f8211600114610256579281929360009261024b575b50508160011b916000199060031b1c1916176003555b80516001600160401b03811161023557600454600181811c9116801561022b575b602082101461021557601f81116101b0575b50602091601f821160011461014c57918192600092610141575b50508160011b916000199060031b1c1916176004555b6040516143be90816103308239f35b01519050388061011c565b601f198216926004600052806000209160005b8581106101985750836001951061017f575b505050811b01600455610132565b015160001960f88460031b161c19169055388080610171565b9192602060018192868501518155019401920161015f565b60046000527f8a35acfbc15ff81a39ae7d344fd709f28e8600b4aa8c65c6b64bfe7fe36bd19b601f830160051c8101916020841061020b575b601f0160051c01905b8181106101ff5750610102565b600081556001016101f2565b90915081906101e9565b634e487b7160e01b600052602260045260246000fd5b90607f16906100f0565b634e487b7160e01b600052604160045260246000fd5b0151905038806100b9565b601f198216936003600052806000209160005b8681106102a3575083600195961061028a575b505050811b016003556100cf565b015160001960f88460031b161c1916905538808061027c565b91926020600181928685015181550194019201610269565b60036000527fc2575a0e9e593c00f959f8c92f12db2869c3395a3b0502d05e2516446f71f85b601f830160051c81019160208410610316575b601f0160051c01905b81811061030a575061009e565b600081556001016102fd565b90915081906102f4565b90607f169061008c565b600080fdfe6080604052600436101561001257600080fd5b60003560e01c80630270bb6214612c4d57806306fdde0314612ba5578063095ea7b314612b7f5780630a80f38814612b095780630e3ad2a214612adc57806318160ddd14612abe5780631aee42fb146128df57806323b872dd1461281757806323fb4cad146127265780632a5c792a1461266b5780632bee1676146125d1578063313ce567146125b557806339509351146125625780633ef0e83f146124345780634a8651b2146123bb5780636c842b8a1461225857806370a082311461221e578063726ae919146120bf5780637a4531b114611dba5780637d07b2d214611d8d5780638ce9a3e014611c695780638deb91a014611aa65780638eb6b0281461199357806395d89b41146118c6578063a457c2d71461181e578063a9059cbb146117ed578063aa95c26c146115ec578063add6415d1461155d578063bb7bb2781461153f578063bd14de9614611417578063c4070dfd14611321578063c6527066146112a2578063d094fecb1461119b578063d0ce8fce1461109b578063d625113414610f5f578063dcf793b714610f18578063dd62ed3e14610ec0578063e02ca27a14610d21578063e0ab368814610c1b578063e72e533f14610b07578063ea8a69b9146109f2578063ed9e880414610707578063eebe8238146106b4578063f08b82e614610696578063f44e6755146105c3578063f571d912146104d85763f60885731461022157600080fd5b346104d35760603660031901126104d3576004356001600160401b0381116104d357610251903690600401612dab565b6024356001600160401b0381116104d3576102726024913690600401612dab565b91604435906001600b540180600b556102f0600161029861029242614110565b93614110565b604051968791602083019563544b4e2d60e01b87526102c08151809260208688019101612e2f565b8301602d60f81b838201526102df825180936020602585019101612e2f565b01010301601f198101865285612d6f565b600083126104c557825b33156104805761030c81600254613938565b600255336000526000602052604060002081815401905560405190815260007fddf252ad1be2c89b69c2b068fc378daa952ba7f163c4a11628f55a4df523b3ef60203393a360036040519161036083612d1d565b8583526103c0602084018581526103b660408601918a83526103ac61039a602060608a01978c89528d604051938492839251928391612e2f565b81016007815203019020975188613557565b5160018701613557565b5160028501613557565b51910155600e54600160401b81101561046a578060016103e59201600e55600e612ff5565b92909261045457610449610426856104217fe23114fe27f7be70984c72f92cce6a0acc20674db41af2d72d29fdd458890c459761043b97613557565b6136bf565b95604051948594606086526060860190612e52565b908482036020860152612e52565b9060408301520390a2005b634e487b7160e01b600052600060045260246000fd5b634e487b7160e01b600052604160045260246000fd5b60405162461bcd60e51b815260206004820152601f60248201527f45524332303a206d696e7420746f20746865207a65726f2061646472657373006044820152606490fd5b6104ce836136ae565b6102fa565b600080fd5b346104d35760203660031901126104d3576004356001600160401b0381116104d357610523602061051061059d933690600401612dab565b8160405193828580945193849201612e2f565b81016007815203019020604051906105468261053f8184612edd565b0383612d6f565b6105b9604051916105658361055e8160018501612edd565b0384612d6f565b6105ab6003604051926105868461057f8160028501612edd565b0385612d6f565b015493604051968796608088526080880190612e52565b908682036020880152612e52565b908482036040860152612e52565b9060608301520390f35b346104d35760203660031901126104d3576004356001600160401b0381116104d3576105fb602061051061066b933690600401612dab565b81016008815203019020604051906106178261053f8184612edd565b6040516106328161062b8160018601612edd565b0382612d6f565b6106876040516106498161062b8160028801612edd565b610679600460038601549501549360405197889760a0895260a0890190612e52565b908782036020890152612e52565b908582036040870152612e52565b91606084015260808301520390f35b346104d35760003660031901126104d3576020600e54604051908152f35b346104d35760203660031901126104d3576004356001600160401b0381116104d3576106ef6106ea610703923690600401612dab565b613d84565b604051918291602083526020830190613313565b0390f35b346104d3576101803660031901126104d3576004356001600160401b0381116104d357610738903690600401612dab565b6024356001600160401b0381116104d357610757903690600401612dab565b6044356001600160401b0381116104d357610776903690600401612dab565b6064356001600160401b0381116104d357610795903690600401612dab565b916084356001600160401b0381116104d3576107b5903690600401612dab565b9360a4356001600160401b0381116104d3576107d5903690600401612dab565b60c4356001600160401b0381116104d3576107f4903690600401612dab565b60e4356001600160401b0381116104d357610813903690600401612dab565b610104356001600160401b0381116104d357610833903690600401612dab565b90610124356001600160401b0381116104d357610854903690600401612dab565b9261014435946001600160401b0386116104d357868b898c8888888f9c36906004019061088091612dab565b9c8d9460065461088f90613889565b9788600655604051996108a18b612d53565b8a5260208a0197885260408a0192835260608a0191825260808a0190815260a08a01918b835260c08b01938d855260e08c019586526101008c019687526101208c019788526101408c019889526101608c0199610164358b526101808d019b428d5260005260056020526040600020809d5161091c91613557565b5161092a9060018e01613557565b516109389060028d01613557565b516109469060038c01613557565b516109549060048b01613557565b516109629060058a01613557565b516109709060068901613557565b5161097e9060078801613557565b5161098c9060088701613557565b5161099a9060098601613557565b516109a890600a8501613557565b51600b8301555190600c01556040519a8b9a8b9a429a610164359a6109cc9d613423565b037fe64ebda120a8bc0569b2033c59c749df43b3adadabd10cefeba2efa424462e8e91a1005b346104d35760203660031901126104d3576004356001600160401b0381116104d357610a22903690600401612dab565b600f54602082016000805b838110610acb5750610a3e90613d04565b9260009160005b848110610a5a57604051806107038882613352565b61062b610a76610a6983613538565b5060405192838092612edd565b602081519101208351832014610a8f575b600101610a45565b92610ac3600191610aa8610aa287613538565b50613c69565b610ab2828a613924565b52610abd8189613924565b50613889565b939050610a87565b61062b610ada610a6983613538565b602081519101208551842014610af3575b600101610a2d565b90610aff600191613889565b919050610aeb565b346104d357610b15366130d2565b600e5460009290916020820191845b848110610b3657602086604051908152f35b6060610b4a610b4483612fbf565b506136df565b60405190610b5782612d1d565b604051610b688161062b8185612edd565b825260405191610b7f8361055e8160018601612edd565b60208101928352600360405192610b9d8461057f8160028501612edd565b836040840152015493849101526020815191012084518720149081610c03575b50610bcc575b50600101610b24565b909560008282019283129112908015821691151617610bed57946001610bc3565b634e487b7160e01b600052601160045260246000fd5b90505160208151910120845160208601201488610bbd565b346104d3577fc27ef3c3a5e9d6d52dec9e452bcab8b420d3c463a3afd5f42fc2a99064245a6c610d1c610c4d36612df2565b91826004610d04602088610c8d610c8660409c9a9c518481818651960195610c76818389612e2f565b8101600a81520301902054612ea3565b1515613c1d565b8a60018b84604051809251610ca3818389612e2f565b8101600a81520301902001558560028b84604051809251610cc5818389612e2f565b8101600a81520301902001558660038b84604051809251610ce7818389612e2f565b8101600a8152030190200155604051809381928c51928391612e2f565b8101600a815203019020015560405195869586612f60565b0390a1005b346104d357610d2f366130d2565b600e5460208301926000805b838110610e505750610d4c906138d4565b9260009160005b848110610d6857604051806107038882613072565b61062b610d896002610d7c610b4485612fbf565b0160405192838092612edd565b60208151910120825188201480610e27575b610da8575b600101610d53565b92610e1f600191610dbb610b4487612fbf565b600360405191610dca83612d1d565b604051610ddb8161062b8185612edd565b8352604051610df08161062b818a8601612edd565b6020840152604051610e098161062b8160028601612edd565b604084015201546060820152610ab2828a613924565b939050610da0565b5061062b610e3c6001610d7c610b4485612fbf565b602081519101208351602085012014610d9b565b61062b610e646002610d7c610b4485612fbf565b60208151910120835187201480610e97575b610e83575b600101610d3b565b90610e8f600191613889565b919050610e7b565b5061062b610eac6001610d7c610b4485612fbf565b602081519101208551602087012014610e76565b346104d35760403660031901126104d357610ed9612e77565b6001600160a01b03610ee9612e8d565b911660005260016020526001600160a01b03604060002091166000526020526020604060002054604051908152f35b346104d35760203660031901126104d3576004356011548110156104d357610f4b610f4561070392612fda565b9061300d565b604051918291602083526020830190612e52565b346104d357610f6d366130d2565b610f75613945565b50610f7e613945565b91600080916010549360208201935b858110610faa57604051602080825281906107039082018a61311c565b61062b610fb9610a6983612f8e565b6040516020818351610fce8183858801612e2f565b810160088152030190209060405191610fe683612d02565b604051610ff78161062b8185612edd565b835260405161100d8161062b8160018601612edd565b6020840190815260046040519261102b8461057f8160028501612edd565b8360408701526003810154606087015201546080850152516020815191012086518920149081611084575b50611066575b5050600101610f8d565b61106f906142a7565b8581111561105c57909750935060018861105c565b90506020815191012084516020860120148a611056565b346104d35760203660031901126104d3576004356001600160401b0381116104d35761112260206110d3610703933690600401612dab565b6110db6138af565b506040519061111161110a8251938581818601966110fa81838a612e2f565b8101600781520301902054612ea3565b1515613662565b604051938492839251928391612e2f565b8101600781520301902060036040519161113b83612d1d565b60405161114c8161062b8185612edd565b83526040516111628161062b8160018601612edd565b602084015260405161117b8161062b8160028601612edd565b604084015201546060820152604051918291602083526020830190613028565b346104d35760203660031901126104d357600435600f548110156104d3576111c561125b91613538565b50604051906111d88261053f8184612edd565b6040516111ec8161062b8160018601612edd565b6112936040516112038161062b8160028801612edd565b61128560405161121a8161062b8160038a01612edd565b61127760405193611239856112328160048c01612edd565b0386612d6f565b611269600660058a0154990154976040519b8c9b60e08d5260e08d0190612e52565b908b820360208d0152612e52565b9089820360408b0152612e52565b908782036060890152612e52565b908582036080870152612e52565b9160a084015260c08301520390f35b346104d35760203660031901126104d3576004356001600160401b0381116104d35760206105106112d7923690600401612dab565b810160098152030190206040516112f28161062b8185612edd565b6107036040519261130a8461057f8160018501612edd565b600360028201549101549060405194859485613503565b346104d35760203660031901126104d3576004356001600160401b0381116104d357611351903690600401612dab565b600f54602082016000805b8381106113dc575061136d90613d04565b9260009160005b84811061138957604051806107038882613352565b60026113a861139783613538565b5061062b6040518094819301612edd565b6020815191012083518320146113c1575b600101611374565b926113d4600191610aa8610aa287613538565b9390506113b9565b60026113ea61139783613538565b602081519101208551842014611403575b60010161135c565b9061140f600191613889565b9190506113fb565b346104d35760203660031901126104d357600435600052600560205260406000206040516114498161062b8185612edd565b610703604051926114618461057f8160018501612edd565b604051906114768261053f8160028501612edd565b60405161148a8161062b8160038601612edd565b60405161149e8161062b8160048701612edd565b6040516114b28161062b8160058801612edd565b6040516114c68161062b8160068901612edd565b604051906114db8261053f8160078a01612edd565b604051926114f08461057f8160088b01612edd565b6040519461150c866115058160098c01612edd565b0387612d6f565b604051966115288861152181600a8d01612edd565b0389612d6f565b600c600b8a0154990154996040519d8e9d8e613423565b346104d35760003660031901126104d3576020600654604051908152f35b346104d35760003660031901126104d357600f5461157a81613898565b906115886040519283612d6f565b80825260208201600f6000527f8d1108e10bcb7c27dddfc02ed9d693a074039d026cf4ea4240b40f7d581ac8026000915b8383106115ce57604051806107038782613352565b600760206001926115de85613c69565b8152019201920191906115b9565b346104d35760203660031901126104d3576004356001600160401b0381116104d35761161c903690600401612dab565b6010549061162982613973565b916000916020810190835b83811061168957858561164681613973565b9160005b82811061165f5760405180610703868261314c565b8061166c60019284613924565b516116778287613924565b526116828186613924565b500161164a565b61062b611698610a6983612f8e565b60405160208183516116ad8183858801612e2f565b81016008815203019020604051916116c483612d02565b6040516116d58161062b8186612edd565b8352604051916116ec8361055e8160018501612edd565b6020840192835260046040519161170a8361055e8160028501612edd565b826040870152600381015460608701520154608085015260208151910120855187201461173d575b505050600101611634565b611746906142a7565b60019160005b89811061177c575b505050611763575b8080611732565b8561177591610ab2600194988a613924565b949061175c565b6020611788828d613924565b51015160208151910120825160208151910120146117a85760010161174c565b919250506000916117c36117bc838c613924565b51516142a7565b106117d0575b8080611754565b80836117df6117e6938c613924565b5289613924565b50886117c9565b346104d35760403660031901126104d357611813611809612e77565b6024359033613f91565b602060405160018152f35b346104d35760403660031901126104d357611837612e77565b6024359033600052600160205260406000206001600160a01b038216600052602052604060002054918083106118735761181392039033613e89565b60405162461bcd60e51b815260206004820152602560248201527f45524332303a2064656372656173656420616c6c6f77616e63652062656c6f77604482015264207a65726f60d81b6064820152608490fd5b346104d35760003660031901126104d35760405160006004546118e881612ea3565b808452906001811690811561196f5750600114611910575b61070383610f4b81850382612d6f565b600460009081527f8a35acfbc15ff81a39ae7d344fd709f28e8600b4aa8c65c6b64bfe7fe36bd19b939250905b80821061195557509091508101602001610f4b611900565b91926001816020925483858801015201910190929161193d565b60ff191660208086019190915291151560051b84019091019150610f4b9050611900565b346104d35760203660031901126104d3576004356001600160401b0381116104d357611a1060206119cb611a89933690600401612dab565b600060806040516119db81612d02565b606081528285820152826040820152826060820152015260405190611111610c86825193858181860196610c7681838a612e2f565b8101600a81520301902060405190611a2782612d02565b604051611a388161062b8185612edd565b8252600181015490602083019182526002810154906040840191825260046003820154916060860192835201549160808501928352604051958695602087525160a0602088015260c0870190612e52565b935160408601525160608501525160808401525160a08301520390f35b346104d357611ab4366130d2565b90601054611ac181613bcd565b9260009260208101845b848110611b7a578686611add81613bcd565b9160005b828110611b5057836040518091602082016020835281518091526040830190602060408260051b8601019301916000905b828210611b2157505050500390f35b91936001919395506020611b408192603f198a82030186528851613313565b9601920192018594939192611b12565b80611b5d60019284613924565b51611b688287613924565b52611b738186613924565b5001611ae1565b61062b611b946001610d7c611b8e85612f8e565b5061376d565b60208151910120835183201480611c40575b611bb3575b600101611acb565b94611c38600191611bce602061062b610510610a698c612f8e565b81016009815203019020600360405191611be783612d1d565b604051611bf88161062b8185612edd565b8352604051611c0d8161062b818a8601612edd565b60208401526002810154604084015201546060820152611c2d828b613924565b52610abd818a613924565b959050611bab565b5061062b611c556002610d7c611b8e85612f8e565b602081519101208451602086012014611ba6565b346104d35760203660031901126104d3576004356001600160401b0381116104d357611c99903690600401612dab565b60065460208201600060015b83811115611d395750611cb7906139c3565b9260009160015b84811115611cd4576040518061070388826131ac565b80600052600560205261062b611cf4604060002060405192838092612edd565b602081519101208351832014611d13575b611d0e90613889565b611cbe565b92611d31611d0e91856000526005602052610aa86040600020613a72565b939050611d05565b80600052600560205261062b611d59604060002060405192838092612edd565b602081519101208551842014611d78575b611d7390613889565b611ca5565b90611d85611d7391613889565b919050611d6a565b346104d35760203660031901126104d357600435600e548110156104d357610f4b610f4561070392612fbf565b346104d35760803660031901126104d3576004356001600160401b0381116104d357611dea903690600401612dab565b6024356001600160401b0381116104d357611e0b6024913690600401612dab565b9160443590606435916001600c540180600c55611e876001611e2f61029242614110565b60405197889160208301956343544b2d60e01b8752611e578151809260208688019101612e2f565b8301602d60f81b83820152611e76825180936020602585019101612e2f565b01010301601f198101875286612d6f565b60048560405192611e9784612d02565b818452611efe60208501878152611ef460408701918c8352611eea611ed8602060608b01978c895260808c0199428b52604051938492839251928391612e2f565b81016008815203019020985189613557565b5160018801613557565b5160028601613557565b51600384015551910155601054600160401b81101561046a57806001611f2992016010556010612ff5565b91909161045457602495611f5e867fbbe1a40ca38c458508d7a3985392309661e650159d551c2acfa64af4bf8c68e594613557565b611f79611f6a876136bf565b94604051938493429285613503565b0390a26001600d540180600d55611fbf6001611f9761029242614110565b60405196879160208301956348544b2d60e01b87526102c08151809260208688019101612e2f565b600360405191611fce83612d1d565b858352602083018581526120216040850191868352612017612005602060608901964288528c604051938492839251928391612e2f565b81016009815203019020965187613557565b5160018601613557565b51600284015551910155601154600160401b81101561046a5780600161204c92016011556011612ff5565b93909361045457612085816104217f456fc8f1c97121cc73e45116cc0752b186d73b00304ab2198423c0c09be971a49361070397613557565b9160405180916060825261209c6060830187612e52565b9060208301524260408301520390a2604051918291602083526020830190612e52565b346104d35760203660031901126104d3576004356001600160401b0381116104d3576120ef903690600401612dab565b601054602082016000805b8381106121dd575061210b90613973565b9260009160005b8481106121275760405180610703888261314c565b61062b61213b6001610d7c611b8e85612f8e565b602081519101208351832014612154575b600101612112565b926121d5600191612167611b8e87612f8e565b60046040519161217683612d02565b6040516121878161062b8185612edd565b835260405161219c8161062b818a8601612edd565b60208401526040516121b58161062b8160028601612edd565b60408401526003810154606084015201546080820152610ab2828a613924565b93905061214c565b61062b6121f16001610d7c611b8e85612f8e565b60208151910120855184201461220a575b6001016120fa565b90612216600191613889565b919050612202565b346104d35760203660031901126104d3576001600160a01b0361223f612e77565b1660005260006020526020604060002054604051908152f35b346104d35760e03660031901126104d3576004356001600160401b0381116104d357612288903690600401612dab565b6024356001600160401b0381116104d3576122a7903690600401612dab565b6044356001600160401b0381116104d3576122c6903690600401612dab565b916064356001600160401b0381116104d3576122e6903690600401612dab565b926084356001600160401b0381116104d357612306903690600401612dab565b906040519261231484612d38565b83526020830193845260408301908152606083019485526080830191825260a083019160a435835260c084019360c4358552600f54600160401b81101561046a578060016123659201600f55613538565b9790976104545761239b6123af946123916006996123876123a596518d613557565b5160018c01613557565b5160028a01613557565b5160038801613557565b5160048601613557565b51600584015551910155005b346104d35760003660031901126104d3576006546123d8816139c3565b9060015b818111156123f2576040518061070385826131ac565b806000526005602052604060002090600019810191818311610bed5761242f9261241e610abd92613a72565b6124288288613924565b5285613924565b6123dc565b346104d357612442366130d2565b60105460208301926000805b8381106124f2575061245f90613973565b9260009160005b84811061247b5760405180610703888261314c565b61062b61248f6001610d7c611b8e85612f8e565b602081519101208251882014806124c9575b6124ae575b600101612466565b926124c1600191612167611b8e87612f8e565b9390506124a6565b5061062b6124de6002610d7c611b8e85612f8e565b6020815191012083516020850120146124a1565b61062b6125066001610d7c611b8e85612f8e565b60208151910120835187201480612539575b612525575b60010161244e565b90612531600191613889565b91905061251d565b5061062b61254e6002610d7c611b8e85612f8e565b602081519101208551602087012014612518565b346104d35760403660031901126104d35761181361257e612e77565b33600052600160205260406000206001600160a01b0382166000526020526125ae60406000206024359054613938565b9033613e89565b346104d35760003660031901126104d357602060405160128152f35b346104d3576126517feb976d445ef37b3d5927784ec5c45f71a632bf72d3cfe379f3b354cd682901c7612666612606366130d2565b9390610421856002612641602060405161263061110a8851928481818c01956110fa818389612e2f565b604051809381928951928391612e2f565b8101600781520301902001613557565b92604051918291602083526020830190612e52565b0390a2005b346104d35760003660031901126104d357600e54612688816138d4565b9060005b8181106126a157604051806107038582613072565b806126b0610b44600193612fbf565b6003604051916126bf83612d1d565b6040516126d08161062b8185612edd565b83526040516126e58161062b81898601612edd565b60208401526040516126fe8161062b8160028601612edd565b6040840152015460608201526127148286613924565b5261271f8185613924565b500161268c565b346104d35760203660031901126104d3576004356001600160401b0381116104d357612756903690600401612dab565b600e54602082016000805b8381106127d65750612772906138d4565b9260009160005b84811061278e57604051806107038882613072565b61062b6127a26001610d7c610b4485612fbf565b6020815191012083518320146127bb575b600101612779565b926127ce600191610dbb610b4487612fbf565b9390506127b3565b61062b6127ea6001610d7c610b4485612fbf565b602081519101208551842014612803575b600101612761565b9061280f600191613889565b9190506127fb565b346104d35760603660031901126104d357612830612e77565b612838612e8d565b604435906001600160a01b038316600052600160205260406000206001600160a01b03331660005260205260406000205492600019840361287e575b6118139350613f91565b82841061289a576128958361181395033383613e89565b612874565b60405162461bcd60e51b815260206004820152601d60248201527f45524332303a20696e73756666696369656e7420616c6c6f77616e63650000006044820152606490fd5b346104d35760203660031901126104d3576004356001600160401b0381116104d35761290f903690600401612dab565b60405161292d61110a835192602081818701956110fa818389612e2f565b600060036129676020826040518281895161294981838c612e2f565b81016007815203019020015494604051809381928951928391612e2f565b600790820190815203019020015560008112612aaf57905b3315612a6057336000526000602052604060002054828110612a1057826129e9936000923384528360205203604083205580600254036002556040519081527fddf252ad1be2c89b69c2b068fc378daa952ba7f163c4a11628f55a4df523b3ef60203392a36136bf565b7f49656834f5cb7a4a17a37704042cf99cbb50d4ac10bd9e382eadf70ec80dffe0600080a2005b60405162461bcd60e51b815260206004820152602260248201527f45524332303a206275726e20616d6f756e7420657863656564732062616c616e604482015261636560f01b6064820152608490fd5b60405162461bcd60e51b815260206004820152602160248201527f45524332303a206275726e2066726f6d20746865207a65726f206164647265736044820152607360f81b6064820152608490fd5b612ab8906136ae565b9061297f565b346104d35760003660031901126104d3576020600254604051908152f35b346104d35760203660031901126104d3576004356010548110156104d357610f4b610f4561070392612f8e565b346104d35760203660031901126104d3576004356001600160401b0381116104d3576020610510612b3e923690600401612dab565b8101600a815203019020604051612b598161062b8185612edd565b610703600183015492600281015490600460038201549101549160405195869586612f60565b346104d35760403660031901126104d357611813612b9b612e77565b6024359033613e89565b346104d35760003660031901126104d3576040516000600354612bc781612ea3565b808452906001811690811561196f5750600114612bee5761070383610f4b81850382612d6f565b600360009081527fc2575a0e9e593c00f959f8c92f12db2869c3395a3b0502d05e2516446f71f85b939250905b808210612c3357509091508101602001610f4b611900565b919260018160209254838588010152019101909291612c1b565b346104d3577f23aa1ab9e414f1657f56e25929adac59757894dc5871f525557237e92c05b524610d1c612c7f36612df2565b91604095939551612c8f81612d02565b8581526004602082018881526040830184815260608401908682526080850192888452612ce0612cce60208d8160405193828580945193849201612e2f565b8101600a815203019020965187613557565b5160018601555160028501555160038401555191015560405195869586612f60565b60a081019081106001600160401b0382111761046a57604052565b608081019081106001600160401b0382111761046a57604052565b60e081019081106001600160401b0382111761046a57604052565b6101a081019081106001600160401b0382111761046a57604052565b90601f801991011681019081106001600160401b0382111761046a57604052565b6001600160401b03811161046a57601f01601f191660200190565b81601f820112156104d357803590612dc282612d90565b92612dd06040519485612d6f565b828452602083830101116104d357816000926020809301838601378301015290565b60a06003198201126104d357600435906001600160401b0382116104d357612e1c91600401612dab565b9060243590604435906064359060843590565b60005b838110612e425750506000910152565b8181015183820152602001612e32565b90602091612e6b81518092818552858086019101612e2f565b601f01601f1916010190565b600435906001600160a01b03821682036104d357565b602435906001600160a01b03821682036104d357565b90600182811c92168015612ed3575b6020831014612ebd57565b634e487b7160e01b600052602260045260246000fd5b91607f1691612eb2565b60009291815491612eed83612ea3565b8083529260018116908115612f435750600114612f0957505050565b60009081526020812093945091925b838310612f29575060209250010190565b600181602092949394548385870101520191019190612f18565b915050602093945060ff929192191683830152151560051b010190565b919594939092612f7a60809460a0855260a0850190612e52565b966020840152604083015260608201520152565b601054811015612fa957601060005260206000200190600090565b634e487b7160e01b600052603260045260246000fd5b600e54811015612fa957600e60005260206000200190600090565b601154811015612fa957601160005260206000200190600090565b8054821015612fa95760005260206000200190600090565b906104545761302561062b9160405192838092612edd565b90565b906060806130696130576130458651608087526080870190612e52565b60208701518682036020880152612e52565b60408601518582036040870152612e52565b93015191015290565b602081016020825282518091526040820191602060408360051b8301019401926000915b8383106130a557505050505090565b90919293946020806130c3600193603f198682030187528951613028565b97019301930191939290613096565b9060406003198301126104d3576004356001600160401b0381116104d357826130fd91600401612dab565b91602435906001600160401b0382116104d35761302591600401612dab565b90608080613139613057613045865160a0875260a0870190612e52565b9360608101516060850152015191015290565b602081016020825282518091526040820191602060408360051b8301019401926000915b83831061317f57505050505090565b909192939460208061319d600193603f19868203018752895161311c565b97019301930191939290613170565b602081016020825282518091526040820191602060408360051b8301019401926000915b8383106131df57505050505090565b909192939460208061324b83610180806132f26132de6132ca6132b68f6132926132808f8f60019f60406132a49661326e9461325b94603f19908503019052519e8f9261323784516101a083526101a0830190612e52565b906020850151906020818403910152612e52565b9101518d820360408f0152612e52565b60608d01518c6060818403910152612e52565b60808c01518b820360808d0152612e52565b60a08b01518a820360a08c0152612e52565b60c08a015189820360c08b0152612e52565b60e089015188820360e08a0152612e52565b610100880151878203610100890152612e52565b610120870151868203610120880152612e52565b610140860151858203610140870152612e52565b936101608101516101608501520151910152970193019301919392906131d0565b9060608061333f61332d8551608086526080860190612e52565b60208601518582036020870152612e52565b9360408101516040850152015191015290565b602081016020825282518091526040820191602060408360051b8301019401926000915b83831061338557505050505090565b9091929394602080600192603f1985820301865288519060c0806134046133f26133e06133ce6133be885160e0895260e0890190612e52565b898901518882038b8a0152612e52565b60408801518782036040890152612e52565b60608701518682036060880152612e52565b60808601518582036080870152612e52565b9360a081015160a0850152015191015297019301930191939290613376565b9995966134af9c9e9d9c6134e9986134a18d6101809f9c96996134936134f89f9a6134856134cb9b6134776134da9f6134696134bd9d6101a08a526101a08a0190612e52565b9088820360208a0152612e52565b908682036040880152612e52565b908482036060860152612e52565b916080818403910152612e52565b8d810360a08f015290612e52565b908b820360c08d0152612e52565b9089820360e08b0152612e52565b90878203610100890152612e52565b90858203610120870152612e52565b90838203610140850152612e52565b946101608201520152565b9060609261352061352e9297969597608085526080850190612e52565b908382036020850152612e52565b9460408201520152565b600f54811015612fa957600f6000526007602060002091020190600090565b91909182516001600160401b03811161046a576135748254612ea3565b601f811161361a575b506020601f82116001146135b857819293946000926135ad575b50508160011b916000199060031b1c1916179055565b015190503880613597565b601f1982169083600052806000209160005b818110613602575095836001959697106135e9575b505050811b019055565b015160001960f88460031b161c191690553880806135df565b9192602060018192868b0151815501940192016135ca565b826000526020600020601f830160051c81019160208410613658575b601f0160051c01905b81811061364c575061357d565b6000815560010161363f565b9091508190613636565b1561366957565b60405162461bcd60e51b815260206004820152601760248201527f50726f6a65637420546f6b656e206e6f7420666f756e640000000000000000006044820152606490fd5b600160ff1b8114610bed5760000390565b6136d790602060405192828480945193849201612e2f565b810103902090565b604051908160008254926136f284612ea3565b93600181169081156137535750600114613717575b5060209250600781520301902090565b9150506000528160206000206000905b83821061373b575050602091810138613707565b60209192508060019154848701520191018391613727565b60ff19168452506020938015150283019150389050613707565b6040519081600082549261378084612ea3565b93600181169081156137e157506001146137a5575b5060209250600881520301902090565b9150506000528160206000206000905b8382106137c9575050602091810138613795565b602091925080600191548487015201910183916137b5565b60ff19168452506020938015150283019150389050613795565b6040519081600082549261380e84612ea3565b936001811690811561386f5750600114613833575b5060209250600981520301902090565b9150506000528160206000206000905b838210613857575050602091810138613823565b60209192508060019154848701520191018391613843565b60ff19168452506020938015150283019150389050613823565b6000198114610bed5760010190565b6001600160401b03811161046a5760051b60200190565b604051906138bc82612d1d565b60006060838181528160208201528160408201520152565b906138de82613898565b6138eb6040519182612d6f565b82815280926138fc601f1991613898565b019060005b82811061390d57505050565b6020906139186138af565b82828501015201613901565b8051821015612fa95760209160051b010190565b91908201809211610bed57565b6040519061395282612d02565b60006080836060815260606020820152606060408201528260608201520152565b9061397d82613898565b61398a6040519182612d6f565b828152809261399b601f1991613898565b019060005b8281106139ac57505050565b6020906139b7613945565b828285010152016139a0565b906139cd82613898565b6139da6040519182612d6f565b82815280926139eb601f1991613898565b019060005b8281106139fc57505050565b602090604051613a0b81612d53565b606081526060838201526060604082015260608082015260606080820152606060a0820152606060c0820152606060e082015260606101008201526060610120820152606061014082015260006101608201526000610180820152828285010152016139f0565b90604051613a7f81612d53565b610180600c8294604051613a978161062b8185612edd565b8452604051613aad8161062b8160018601612edd565b6020850152604051613ac68161062b8160028601612edd565b6040850152604051613adf8161062b8160038601612edd565b6060850152604051613af88161062b8160048601612edd565b6080850152604051613b118161062b8160058601612edd565b60a0850152604051613b2a8161062b8160068601612edd565b60c0850152604051613b438161062b8160078601612edd565b60e0850152604051613b5c8161062b8160088601612edd565b610100850152604051613b768161062b8160098601612edd565b610120850152604051613b908161062b81600a8601612edd565b610140850152600b8101546101608501520154910152565b60405190613bb582612d1d565b60006060838181528160208201528260408201520152565b90613bd782613898565b613be46040519182612d6f565b8281528092613bf5601f1991613898565b019060005b828110613c0657505050565b602090613c11613ba8565b82828501015201613bfa565b15613c2457565b60405162461bcd60e51b815260206004820152601860248201527f4469766964656e2050726f666974206e6f7420666f756e6400000000000000006044820152606490fd5b90604051613c7681612d38565b60c060068294604051613c8d8161062b8185612edd565b8452604051613ca38161062b8160018601612edd565b6020850152604051613cbc8161062b8160028601612edd565b6040850152604051613cd58161062b8160038601612edd565b6060850152604051613cee8161062b8160048601612edd565b6080850152600581015460a08501520154910152565b90613d0e82613898565b613d1b6040519182612d6f565b8281528092613d2c601f1991613898565b019060005b828110613d3d57505050565b602090604051613d4c81612d38565b606081526060838201526060604082015260608082015260606080820152600060a0820152600060c082015282828501015201613d31565b613d8c613ba8565b506011549060005b828110613df65760405162461bcd60e51b815260206004820152602d60248201527f486973746f7279546f6b656e206e6f7420666f756e6420666f7220676976656e60448201526c0810da185c9d151bdad95b9259609a1b6064820152608490fd5b61062b613e106001610d7c613e0a85612fda565b506137fb565b602081519101208251602084012014613e2b57600101613d94565b613e3a9250613e0a9150612fda565b600360405191613e4983612d1d565b604051613e5a8161062b8185612edd565b8352604051613e708161062b8160018601612edd565b6020840152600281015460408401520154606082015290565b6001600160a01b0316908115613f40576001600160a01b0316918215613ef05760207f8c5be1e5ebec7d5bd14f71427d1e84f3dd0314c0f7b2291e5b200ac8c7c3b925918360005260018252604060002085600052825280604060002055604051908152a3565b60405162461bcd60e51b815260206004820152602260248201527f45524332303a20617070726f766520746f20746865207a65726f206164647265604482015261737360f01b6064820152608490fd5b60405162461bcd60e51b8152602060048201526024808201527f45524332303a20617070726f76652066726f6d20746865207a65726f206164646044820152637265737360e01b6064820152608490fd5b6001600160a01b03169081156140bd576001600160a01b031691821561406c5781600052600060205260406000205481811061401857817fddf252ad1be2c89b69c2b068fc378daa952ba7f163c4a11628f55a4df523b3ef9260209285600052600084520360406000205584600052600082526040600020818154019055604051908152a3565b60405162461bcd60e51b815260206004820152602660248201527f45524332303a207472616e7366657220616d6f756e7420657863656564732062604482015265616c616e636560d01b6064820152608490fd5b60405162461bcd60e51b815260206004820152602360248201527f45524332303a207472616e7366657220746f20746865207a65726f206164647260448201526265737360e81b6064820152608490fd5b60405162461bcd60e51b815260206004820152602560248201527f45524332303a207472616e736665722066726f6d20746865207a65726f206164604482015264647265737360d81b6064820152608490fd5b806000917a184f03e93ff9f4daa797ed6e38ed64bf6a1f01000000000000000082101561426e575b806d04ee2d6d415b85acef8100000000600a921015614253575b662386f26fc1000081101561423f575b6305f5e10081101561422e575b61271081101561421f575b6064811015614211575b1015614206575b600a6021600184019361419d85612d90565b946141ab6040519687612d6f565b8086526141ba601f1991612d90565b013660208701378401015b60001901917f30313233343536373839616263646566000000000000000000000000000000008282061a835304801561420157600a90916141c5565b505090565b60019091019061418b565b606460029104930192614184565b6127106004910493019261417a565b6305f5e1006008910493019261416f565b662386f26fc1000060109104930192614162565b6d04ee2d6d415b85acef810000000060209104930192614152565b50604091507a184f03e93ff9f4daa797ed6e38ed64bf6a1f0100000000000000008104614138565b908151811015612fa9570160200190565b6000809160005b815181101561437f57602d60f81b7fff000000000000000000000000000000000000000000000000000000000000006142e78385614296565b5116146142f7575b6001016142ae565b91806143045750816142ef565b92505b6000926001810180911161436b5791905b8183106143255750505090565b909192600a810290808204600a1490151715610bed576143458483614296565b5160f81c90602f198201918211610bed5760019161436291613938565b93019190614318565b634e487b7160e01b84526011600452602484fd5b5091909161430756fea26469706673582212200b14892da2f3efc4b22fa271fa11a5531ee85cad39ee0219dcbe3f607f4c15a364736f6c634300081b0033",
  "linkReferences": {},
  "deployedLinkReferences": {}
}